{
  "_format": "hh-sol-artifact-1",
  "contractName": "DisposableAccount",
  "sourceName": "src/accounts/DisposableAccount.sol",
  "abi": [
    {
      "inputs": [
        {
          "internalType": "address",
          "name": "_entryPoint",
          "type": "address"
        },
        {
          "internalType": "address",
          "name": "_owner",
          "type": "address"
        }
      ],
      "stateMutability": "nonpayable",
      "type": "constructor"
    },
    {
      "inputs": [],
      "name": "ECDSAInvalidSignature",
      "type": "error"
    },
    {
      "inputs": [
        {
          "internalType": "uint256",
          "name": "length",
          "type": "uint256"
        }
      ],
      "name": "ECDSAInvalidSignatureLength",
      "type": "error"
    },
    {
      "inputs": [
        {
          "internalType": "bytes32",
          "name": "s",
          "type": "bytes32"
        }
      ],
      "name": "ECDSAInvalidSignatureS",
      "type": "error"
    },
    {
      "inputs": [],
      "name": "burned",
      "outputs": [
        {
          "internalType": "bool",
          "name": "",
          "type": "bool"
        }
      ],
      "stateMutability": "view",
      "type": "function"
    },
    {
      "inputs": [],
      "name": "entryPoint",
      "outputs": [
        {
          "internalType": "address",
          "name": "",
          "type": "address"
        }
      ],
      "stateMutability": "view",
      "type": "function"
    },
    {
      "inputs": [
        {
          "internalType": "address",
          "name": "to",
          "type": "address"
        },
        {
          "internalType": "uint256",
          "name": "value",
          "type": "uint256"
        },
        {
          "internalType": "bytes",
          "name": "data",
          "type": "bytes"
        }
      ],
      "name": "executeAndBurn",
      "outputs": [],
      "stateMutability": "nonpayable",
      "type": "function"
    },
    {
      "inputs": [],
      "name": "owner",
      "outputs": [
        {
          "internalType": "address",
          "name": "",
          "type": "address"
        }
      ],
      "stateMutability": "view",
      "type": "function"
    },
    {
      "inputs": [
        {
          "components": [
            {
              "internalType": "address",
              "name": "sender",
              "type": "address"
            },
            {
              "internalType": "uint256",
              "name": "nonce",
              "type": "uint256"
            },
            {
              "internalType": "bytes",
              "name": "initCode",
              "type": "bytes"
            },
            {
              "internalType": "bytes",
              "name": "callData",
              "type": "bytes"
            },
            {
              "internalType": "uint256",
              "name": "callGasLimit",
              "type": "uint256"
            },
            {
              "internalType": "uint256",
              "name": "verificationGasLimit",
              "type": "uint256"
            },
            {
              "internalType": "uint256",
              "name": "preVerificationGas",
              "type": "uint256"
            },
            {
              "internalType": "uint256",
              "name": "maxFeePerGas",
              "type": "uint256"
            },
            {
              "internalType": "uint256",
              "name": "maxPriorityFeePerGas",
              "type": "uint256"
            },
            {
              "internalType": "bytes",
              "name": "paymasterAndData",
              "type": "bytes"
            },
            {
              "internalType": "bytes",
              "name": "signature",
              "type": "bytes"
            }
          ],
          "internalType": "struct UserOperation",
          "name": "userOp",
          "type": "tuple"
        },
        {
          "internalType": "bytes32",
          "name": "userOpHash",
          "type": "bytes32"
        },
        {
          "internalType": "uint256",
          "name": "",
          "type": "uint256"
        }
      ],
      "name": "validateUserOp",
      "outputs": [
        {
          "internalType": "uint256",
          "name": "",
          "type": "uint256"
        }
      ],
      "stateMutability": "view",
      "type": "function"
    },
    {
      "stateMutability": "payable",
      "type": "receive"
    }
  ],
  "bytecode": "0x60c060405234801561001057600080fd5b5060405161084c38038061084c83398101604081905261002f91610062565b6001600160a01b039182166080521660a052610095565b80516001600160a01b038116811461005d57600080fd5b919050565b6000806040838503121561007557600080fd5b61007e83610046565b915061008c60208401610046565b90509250929050565b60805160a05161077e6100ce6000396000818160c9015261024301526000818161011501528181610166015261029c015261077e6000f3fe60806040526004361061004e5760003560e01c80633a871cdd1461005a57806373f425611461008d5780638da5cb5b146100b7578063b0d691fe14610103578063dc41461d1461013757600080fd5b3661005557005b600080fd5b34801561006657600080fd5b5061007a6100753660046105eb565b610159565b6040519081526020015b60405180910390f35b34801561009957600080fd5b506000546100a79060ff1681565b6040519015158152602001610084565b3480156100c357600080fd5b506100eb7f000000000000000000000000000000000000000000000000000000000000000081565b6040516001600160a01b039091168152602001610084565b34801561010f57600080fd5b506100eb7f000000000000000000000000000000000000000000000000000000000000000081565b34801561014357600080fd5b5061015761015236600461063f565b610291565b005b6000336001600160a01b037f000000000000000000000000000000000000000000000000000000000000000016146101c15760405162461bcd60e51b815260206004820152600660248201526506e6f742065760d41b60448201526064015b60405180910390fd5b60005460ff16156101d45750600161028a565b6020840135156101e65750600161028a565b600061023f6101f96101408701876106d4565b8080601f01602080910402602001604051908101604052809392919081815260200183838082843760009201919091525061023992508891506103b59050565b906103e8565b90507f00000000000000000000000000000000000000000000000000000000000000006001600160a01b0316816001600160a01b03161461028457600191505061028a565b60009150505b9392505050565b336001600160a01b037f000000000000000000000000000000000000000000000000000000000000000016146102f25760405162461bcd60e51b815260206004820152600660248201526506e6f742065760d41b60448201526064016101b8565b60005460ff161561032e5760405162461bcd60e51b8152602060048201526006602482015265189d5c9b995960d21b60448201526064016101b8565b600080856001600160a01b031685858560405161034c929190610722565b60006040518083038185875af1925050503d8060008114610389576040519150601f19603f3d011682016040523d82523d6000602084013e61038e565b606091505b5091509150816103a057805160208201fd5b50506000805460ff1916600117905550505050565b7f19457468657265756d205369676e6564204d6573736167653a0a3332000000006000908152601c91909152603c902090565b6000806000806103f88686610412565b925092509250610408828261045f565b5090949350505050565b6000806000835160410361044c5760208401516040850151606086015160001a61043e8882858561051c565b955095509550505050610458565b50508151600091506002905b9250925092565b600082600381111561047357610473610732565b0361047c575050565b600182600381111561049057610490610732565b036104ae5760405163f645eedf60e01b815260040160405180910390fd5b60028260038111156104c2576104c2610732565b036104e35760405163fce698f760e01b8152600481018290526024016101b8565b60038260038111156104f7576104f7610732565b03610518576040516335e2f38360e21b8152600481018290526024016101b8565b5050565b600080807f7fffffffffffffffffffffffffffffff5d576e7357a4501ddfe92f46681b20a084111561055757506000915060039050826105e1565b604080516000808252602082018084528a905260ff891692820192909252606081018790526080810186905260019060a0016020604051602081039080840390855afa1580156105ab573d6000803e3d6000fd5b5050604051601f1901519150506001600160a01b0381166105d7575060009250600191508290506105e1565b9250600091508190505b9450945094915050565b60008060006060848603121561060057600080fd5b833567ffffffffffffffff81111561061757600080fd5b8401610160818703121561062a57600080fd5b95602085013595506040909401359392505050565b6000806000806060858703121561065557600080fd5b84356001600160a01b038116811461066c57600080fd5b935060208501359250604085013567ffffffffffffffff8082111561069057600080fd5b818701915087601f8301126106a457600080fd5b8135818111156106b357600080fd5b8860208285010111156106c557600080fd5b95989497505060200194505050565b6000808335601e198436030181126106eb57600080fd5b83018035915067ffffffffffffffff82111561070657600080fd5b60200191503681900382131561071b57600080fd5b9250929050565b8183823760009101908152919050565b634e487b7160e01b600052602160045260246000fdfea264697066735822122015fc77c4462b5fdeafb09073a76ffa438b910552861a62d8ff340302c6a5ced964736f6c63430008180033",
  "linkReferences": {},
  "deployedLinkReferences": {}
}