{
  "_format": "hh-sol-artifact-1",
  "contractName": "CipherAccountFactory",
  "sourceName": "src/factory/CipherAccountFactory.sol",
  "abi": [
    {
      "anonymous": false,
      "inputs": [
        {
          "indexed": false,
          "internalType": "address",
          "name": "account",
          "type": "address"
        },
        {
          "indexed": false,
          "internalType": "address",
          "name": "owner",
          "type": "address"
        }
      ],
      "name": "Deployed",
      "type": "event"
    },
    {
      "inputs": [
        {
          "internalType": "address",
          "name": "entryPoint",
          "type": "address"
        },
        {
          "internalType": "address",
          "name": "owner",
          "type": "address"
        },
        {
          "internalType": "bytes32",
          "name": "salt",
          "type": "bytes32"
        }
      ],
      "name": "create",
      "outputs": [
        {
          "internalType": "address",
          "name": "account",
          "type": "address"
        }
      ],
      "stateMutability": "nonpayable",
      "type": "function"
    },
    {
      "inputs": [
        {
          "internalType": "address",
          "name": "entryPoint",
          "type": "address"
        },
        {
          "internalType": "address",
          "name": "owner",
          "type": "address"
        },
        {
          "internalType": "bytes32",
          "name": "salt",
          "type": "bytes32"
        }
      ],
      "name": "getAddress",
      "outputs": [
        {
          "internalType": "address",
          "name": "predicted",
          "type": "address"
        }
      ],
      "stateMutability": "view",
      "type": "function"
    }
  ],
  "bytecode": "0x608060405234801561001057600080fd5b506119de806100206000396000f3fe608060405234801561001057600080fd5b50600436106100365760003560e01c806349d27e271461003b578063d1692f561461006a575b600080fd5b61004e61004936600461020a565b61007d565b6040516001600160a01b03909116815260200160405180910390f35b61004e61007836600461020a565b61014b565b60008060405180602001610090906101e1565b601f1982820381018352601f9091011660408181526001600160a01b03888116602084015287169082015260600160408051601f19818403018152908290526100dc9291602001610276565b60408051808303601f1901815282825280516020918201206001600160f81b0319828501523060601b6bffffffffffffffffffffffff19166021850152603584019690965260558084019690965281518084039096018652607590920190528351930192909220949350505050565b600081848460405161015c906101e1565b6001600160a01b039283168152911660208201526040018190604051809103906000f5905080158015610193573d6000803e3d6000fd5b50604080516001600160a01b038084168252861660208201529192507f09e48df7857bd0c1e0d31bb8a85d42cf1874817895f171c917f6ee2cea73ec20910160405180910390a19392505050565b6117158061029483390190565b80356001600160a01b038116811461020557600080fd5b919050565b60008060006060848603121561021f57600080fd5b610228846101ee565b9250610236602085016101ee565b9150604084013590509250925092565b6000815160005b81811015610267576020818501810151868301520161024d565b50600093019283525090919050565b600061028b6102858386610246565b84610246565b94935050505056fe60a060405234801561001057600080fd5b5060405162001715380380620017158339810160408190526100319161009f565b6001600160a01b03828116608052600080546001600160a01b03191691831691821781556040517fa2ea9883a321a3e97b8266c2b078bfeec6d50c711ed71f874a90d500ae2eaf369190a250506100d2565b80516001600160a01b038116811461009a57600080fd5b919050565b600080604083850312156100b257600080fd5b6100bb83610083565b91506100c960208401610083565b90509250929050565b608051611619620000fc60003960008181610447015281816106dd0152610b3f01526116196000f3fe60806040526004361061016a5760003560e01c80637abed905116100d1578063a750c0531161008a578063b7b8d60411610064578063b7b8d60414610489578063c1db7e14146104b9578063e9814be3146104ef578063ec1d17541461050f57600080fd5b8063a750c05314610420578063b0d691fe14610435578063b61d27f61461046957600080fd5b80637abed905146103205780637e932d32146103405780637ee7608214610360578063849505a1146103805780638da5cb5b146103ad578063a25c62e7146103e557600080fd5b80632d96834e116101235780632d96834e146102745780633758ca7a146102945780633a871cdd146102aa57806354387ad7146102ca57806355c948ba146102e05780636b24dc2f1461030057600080fd5b8063054f7d9c146101765780630633b14a146101a557806313af4035146101d55780631626ba7e146101f75780631c8123d6146102305780631fff047c1461025457600080fd5b3661017157005b600080fd5b34801561018257600080fd5b506002546101909060ff1681565b60405190151581526020015b60405180910390f35b3480156101b157600080fd5b506101906101c0366004611210565b60036020526000908152604090205460ff1681565b3480156101e157600080fd5b506101f56101f0366004611210565b61053c565b005b34801561020357600080fd5b50610217610212366004611241565b6105b7565b6040516001600160e01b0319909116815260200161019c565b34801561023c57600080fd5b5061024660055481565b60405190815260200161019c565b34801561026057600080fd5b506101f561026f36600461130c565b610651565b34801561028057600080fd5b5061024661028f366004611210565b6106a6565b3480156102a057600080fd5b5061024660065481565b3480156102b657600080fd5b506102466102c536600461133f565b6106d0565b3480156102d657600080fd5b5061024660045481565b3480156102ec57600080fd5b506101f56102fb366004611393565b610819565b34801561030c57600080fd5b506101f561031b3660046113ae565b61087f565b34801561032c57600080fd5b506101f561033b366004611430565b6108b0565b34801561034c57600080fd5b506101f561035b366004611393565b610a15565b34801561036c57600080fd5b5061024661037b366004611210565b610a3f565b34801561038c57600080fd5b5061024661039b366004611430565b60076020526000908152604090205481565b3480156103b957600080fd5b506000546103cd906001600160a01b031681565b6040516001600160a01b03909116815260200161019c565b3480156103f157600080fd5b50610190610400366004611449565b600a60209081526000928352604080842090915290825290205460ff1681565b34801561042c57600080fd5b506101f5610aa1565b34801561044157600080fd5b506103cd7f000000000000000000000000000000000000000000000000000000000000000081565b34801561047557600080fd5b506101f561048436600461146c565b610b34565b34801561049557600080fd5b506101906104a4366004611210565b60016020526000908152604090205460ff1681565b3480156104c557600080fd5b506103cd6104d4366004611430565b6008602052600090815260409020546001600160a01b031681565b3480156104fb57600080fd5b506101f561050a3660046113ae565b610c4b565b34801561051b57600080fd5b5061024661052a366004611430565b60096020526000908152604090205481565b6000546001600160a01b0316331461056f5760405162461bcd60e51b8152600401610566906114f3565b60405180910390fd5b600080546001600160a01b0319166001600160a01b038316908117825560405190917fa2ea9883a321a3e97b8266c2b078bfeec6d50c711ed71f874a90d500ae2eaf3691a250565b7f19457468657265756d205369676e6564204d6573736167653a0a3332000000006000908152601c839052603c812081906105f29084610c75565b6000549091506001600160a01b038083169116148061062957506001600160a01b03811660009081526001602052604090205460ff165b1561063e5750630b135d3f60e11b905061064b565b506001600160e01b031990505b92915050565b6000546001600160a01b0316331461067b5760405162461bcd60e51b8152600401610566906114f3565b6001600160a01b03919091166000908152600160205260409020805460ff1916911515919091179055565b60003330146106c75760405162461bcd60e51b815260040161056690611516565b61064b82610c9f565b6000336001600160a01b037f000000000000000000000000000000000000000000000000000000000000000016146107335760405162461bcd60e51b815260206004820152600660248201526506e6f742065760d41b6044820152606401610566565b60025460ff161561074657506001610812565b7f19457468657265756d205369676e6564204d6573736167653a0a3332000000006000908152601c849052603c8120906107c4610787610140880188611538565b8080601f0160208091040260200160405190810160405280939291908181526020018383808284376000920191909152508693925050610c759050565b6000549091506001600160a01b03808316911614806107fb57506001600160a01b03811660009081526001602052604090205460ff165b1561080b57600092505050610812565b6001925050505b9392505050565b3330146108385760405162461bcd60e51b815260040161056690611516565b6002805460ff19168215159081179091556040519081527f59800d968fcce138300a0019410b4b75041610d65b3cdc5f31656b03ed14912e9060200160405180910390a150565b33301461089e5760405162461bcd60e51b815260040161056690611516565b6108aa84848484610ea2565b50505050565b6000818152600860205260409020546001600160a01b0316806108fe5760405162461bcd60e51b81526020600482015260066024820152656e6f2072656360d01b6044820152606401610566565b60055460008381526009602052604090205410156109495760405162461bcd60e51b81526020600482015260086024820152673637bb9031b7b73360c11b6044820152606401610566565b6006546000838152600760205260409020546109659190611586565b42101561099c5760405162461bcd60e51b815260206004820152600560248201526464656c617960d81b6044820152606401610566565b600080546001600160a01b0319166001600160a01b038316908117825560405190917fa2ea9883a321a3e97b8266c2b078bfeec6d50c711ed71f874a90d500ae2eaf3691a25060009081526007602090815260408083208390556008825280832080546001600160a01b03191690556009909152812055565b6000546001600160a01b031633146108385760405162461bcd60e51b8152600401610566906114f3565b3360009081526003602052604081205460ff1680610a6757506000546001600160a01b031633145b6106c75760405162461bcd60e51b815260206004820152600b60248201526a1b9bdd08185b1b1bddd95960aa1b6044820152606401610566565b3360009081526003602052604090205460ff16610aef5760405162461bcd60e51b815260206004820152600c60248201526b3737ba1033bab0b93234b0b760a11b6044820152606401610566565b6002805460ff191660019081179091556040519081527f59800d968fcce138300a0019410b4b75041610d65b3cdc5f31656b03ed14912e9060200160405180910390a1565b336001600160a01b037f00000000000000000000000000000000000000000000000000000000000000001614610b955760405162461bcd60e51b815260206004820152600660248201526506e6f742065760d41b6044820152606401610566565b60025460ff1615610bd15760405162461bcd60e51b8152602060048201526006602482015265333937bd32b760d11b6044820152606401610566565b600080856001600160a01b0316858585604051610bef9291906115a7565b60006040518083038185875af1925050503d8060008114610c2c576040519150601f19603f3d011682016040523d82523d6000602084013e610c31565b606091505b509150915081610c4357805160208201fd5b505050505050565b6000546001600160a01b0316331461089e5760405162461bcd60e51b8152600401610566906114f3565b600080600080610c858686611020565b925092509250610c95828261106d565b5090949350505050565b6040516bffffffffffffffffffffffff1930606090811b8216602084015246603484015283901b1660548201526000906068016040516020818303038152906040528051906020012090506007600082815260200190815260200160002054600003610d76576000818152600760209081526040808320429055600882529182902080546001600160a01b0319166001600160a01b0386169081179091558251848152918201527fb0358421f209d140dd87340e6fdbf9f152ce36ab49893603d4aa635086922c91910160405180910390a1610dca565b6000818152600860205260409020546001600160a01b03838116911614610dca5760405162461bcd60e51b81526020600482015260086024820152670dad2e6dac2e8c6d60c31b6044820152606401610566565b3360009081526003602052604090205460ff168015610e0357506000818152600a6020908152604080832033845290915290205460ff16155b15610e9d576000818152600a602090815260408083203384528252808320805460ff191660019081179091558484526009909252822054610e4391611586565b600083815260096020908152604091829020839055815185815233918101919091529081018290529091507f6b6feb625d73992ece99cca9ecdda772ec72647b4aa84d3332d84a60a7a643f99060600160405180910390a1505b919050565b60005b83811015610f7e5760036000868684818110610ec357610ec36115b7565b9050602002016020810190610ed89190611210565b6001600160a01b0316815260208101919091526040016000205460ff16610f7657600160036000878785818110610f1157610f116115b7565b9050602002016020810190610f269190611210565b6001600160a01b03166001600160a01b0316815260200190815260200160002060006101000a81548160ff021916908315150217905550600160046000828254610f709190611586565b90915550505b600101610ea5565b50600082118015610f9157506004548211155b610fcd5760405162461bcd60e51b815260206004820152600d60248201526c189859081d1a1c995cda1bdb19609a1b6044820152606401610566565b60058290556006819055600454604080519182526020820184905281018290527fb03b8520e3b64ee61e25f165b663f60a33626c7f6adf84847ccee927850d8d2c9060600160405180910390a150505050565b6000806000835160410361105a5760208401516040850151606086015160001a61104c8882858561112a565b955095509550505050611066565b50508151600091506002905b9250925092565b6000826003811115611081576110816115cd565b0361108a575050565b600182600381111561109e5761109e6115cd565b036110bc5760405163f645eedf60e01b815260040160405180910390fd5b60028260038111156110d0576110d06115cd565b036110f15760405163fce698f760e01b815260048101829052602401610566565b6003826003811115611105576111056115cd565b03611126576040516335e2f38360e21b815260048101829052602401610566565b5050565b600080807f7fffffffffffffffffffffffffffffff5d576e7357a4501ddfe92f46681b20a084111561116557506000915060039050826111ef565b604080516000808252602082018084528a905260ff891692820192909252606081018790526080810186905260019060a0016020604051602081039080840390855afa1580156111b9573d6000803e3d6000fd5b5050604051601f1901519150506001600160a01b0381166111e5575060009250600191508290506111ef565b9250600091508190505b9450945094915050565b80356001600160a01b0381168114610e9d57600080fd5b60006020828403121561122257600080fd5b610812826111f9565b634e487b7160e01b600052604160045260246000fd5b6000806040838503121561125457600080fd5b82359150602083013567ffffffffffffffff8082111561127357600080fd5b818501915085601f83011261128757600080fd5b8135818111156112995761129961122b565b604051601f8201601f19908116603f011681019083821181831017156112c1576112c161122b565b816040528281528860208487010111156112da57600080fd5b8260208601602083013760006020848301015280955050505050509250929050565b80358015158114610e9d57600080fd5b6000806040838503121561131f57600080fd5b611328836111f9565b9150611336602084016112fc565b90509250929050565b60008060006060848603121561135457600080fd5b833567ffffffffffffffff81111561136b57600080fd5b8401610160818703121561137e57600080fd5b95602085013595506040909401359392505050565b6000602082840312156113a557600080fd5b610812826112fc565b600080600080606085870312156113c457600080fd5b843567ffffffffffffffff808211156113dc57600080fd5b818701915087601f8301126113f057600080fd5b8135818111156113ff57600080fd5b8860208260051b850101111561141457600080fd5b6020928301999098509187013596604001359550909350505050565b60006020828403121561144257600080fd5b5035919050565b6000806040838503121561145c57600080fd5b82359150611336602084016111f9565b6000806000806060858703121561148257600080fd5b61148b856111f9565b935060208501359250604085013567ffffffffffffffff808211156114af57600080fd5b818701915087601f8301126114c357600080fd5b8135818111156114d257600080fd5b8860208285010111156114e457600080fd5b95989497505060200194505050565b6020808252600990820152683737ba1037bbb732b960b91b604082015260600190565b6020808252600890820152673737ba1039b2b63360c11b604082015260600190565b6000808335601e1984360301811261154f57600080fd5b83018035915067ffffffffffffffff82111561156a57600080fd5b60200191503681900382131561157f57600080fd5b9250929050565b8082018082111561064b57634e487b7160e01b600052601160045260246000fd5b8183823760009101908152919050565b634e487b7160e01b600052603260045260246000fd5b634e487b7160e01b600052602160045260246000fdfea26469706673582212201e741079ba21e55eae5fe0a946744b49949190159cd1069ccaaccfa5a4b165ce64736f6c63430008180033a2646970667358221220a939016e986064f10e2ecc373d1ba64255a9e63a783533ff759daa846b7b64b264736f6c63430008180033",
  "linkReferences": {},
  "deployedLinkReferences": {}
}