{
  "_format": "hh-sol-artifact-1",
  "contractName": "CipherP256Account",
  "sourceName": "src/accounts/CipherP256Account.sol",
  "abi": [
    {
      "inputs": [
        {
          "internalType": "address",
          "name": "_entryPoint",
          "type": "address"
        },
        {
          "internalType": "bytes",
          "name": "_ownerPublicKey",
          "type": "bytes"
        }
      ],
      "stateMutability": "nonpayable",
      "type": "constructor"
    },
    {
      "anonymous": false,
      "inputs": [
        {
          "indexed": false,
          "internalType": "bool",
          "name": "v",
          "type": "bool"
        }
      ],
      "name": "Frozen",
      "type": "event"
    },
    {
      "anonymous": false,
      "inputs": [],
      "name": "OwnerKeySet",
      "type": "event"
    },
    {
      "inputs": [],
      "name": "entryPoint",
      "outputs": [
        {
          "internalType": "address",
          "name": "",
          "type": "address"
        }
      ],
      "stateMutability": "view",
      "type": "function"
    },
    {
      "inputs": [
        {
          "internalType": "address",
          "name": "to",
          "type": "address"
        },
        {
          "internalType": "uint256",
          "name": "value",
          "type": "uint256"
        },
        {
          "internalType": "bytes",
          "name": "data",
          "type": "bytes"
        }
      ],
      "name": "execute",
      "outputs": [],
      "stateMutability": "nonpayable",
      "type": "function"
    },
    {
      "inputs": [],
      "name": "frozen",
      "outputs": [
        {
          "internalType": "bool",
          "name": "",
          "type": "bool"
        }
      ],
      "stateMutability": "view",
      "type": "function"
    },
    {
      "inputs": [
        {
          "internalType": "bytes32",
          "name": "hash",
          "type": "bytes32"
        },
        {
          "internalType": "bytes",
          "name": "signature",
          "type": "bytes"
        }
      ],
      "name": "isValidSignature",
      "outputs": [
        {
          "internalType": "bytes4",
          "name": "",
          "type": "bytes4"
        }
      ],
      "stateMutability": "view",
      "type": "function"
    },
    {
      "inputs": [],
      "name": "ownerPublicKey",
      "outputs": [
        {
          "internalType": "bytes",
          "name": "",
          "type": "bytes"
        }
      ],
      "stateMutability": "view",
      "type": "function"
    },
    {
      "inputs": [
        {
          "internalType": "bool",
          "name": "v",
          "type": "bool"
        }
      ],
      "name": "setFrozen",
      "outputs": [],
      "stateMutability": "nonpayable",
      "type": "function"
    },
    {
      "inputs": [
        {
          "components": [
            {
              "internalType": "address",
              "name": "sender",
              "type": "address"
            },
            {
              "internalType": "uint256",
              "name": "nonce",
              "type": "uint256"
            },
            {
              "internalType": "bytes",
              "name": "initCode",
              "type": "bytes"
            },
            {
              "internalType": "bytes",
              "name": "callData",
              "type": "bytes"
            },
            {
              "internalType": "uint256",
              "name": "callGasLimit",
              "type": "uint256"
            },
            {
              "internalType": "uint256",
              "name": "verificationGasLimit",
              "type": "uint256"
            },
            {
              "internalType": "uint256",
              "name": "preVerificationGas",
              "type": "uint256"
            },
            {
              "internalType": "uint256",
              "name": "maxFeePerGas",
              "type": "uint256"
            },
            {
              "internalType": "uint256",
              "name": "maxPriorityFeePerGas",
              "type": "uint256"
            },
            {
              "internalType": "bytes",
              "name": "paymasterAndData",
              "type": "bytes"
            },
            {
              "internalType": "bytes",
              "name": "signature",
              "type": "bytes"
            }
          ],
          "internalType": "struct UserOperation",
          "name": "userOp",
          "type": "tuple"
        },
        {
          "internalType": "bytes32",
          "name": "userOpHash",
          "type": "bytes32"
        },
        {
          "internalType": "uint256",
          "name": "",
          "type": "uint256"
        }
      ],
      "name": "validateUserOp",
      "outputs": [
        {
          "internalType": "uint256",
          "name": "",
          "type": "uint256"
        }
      ],
      "stateMutability": "view",
      "type": "function"
    },
    {
      "stateMutability": "payable",
      "type": "receive"
    }
  ],
  "bytecode": "0x60a06040523480156200001157600080fd5b5060405162000caf38038062000caf833981016040819052620000349162000097565b6001600160a01b03821660805260006200004f82826200021e565b506040517f6833d2b1496eda027fbad7621124a7717384ebbde6d8a3765f449540d6664ca890600090a15050620002ea565b634e487b7160e01b600052604160045260246000fd5b60008060408385031215620000ab57600080fd5b82516001600160a01b0381168114620000c357600080fd5b602084810151919350906001600160401b0380821115620000e357600080fd5b818601915086601f830112620000f857600080fd5b8151818111156200010d576200010d62000081565b604051601f8201601f19908116603f0116810190838211818310171562000138576200013862000081565b8160405282815289868487010111156200015157600080fd5b600093505b8284101562000175578484018601518185018701529285019262000156565b60008684830101528096505050505050509250929050565b600181811c90821680620001a257607f821691505b602082108103620001c357634e487b7160e01b600052602260045260246000fd5b50919050565b601f82111562000219576000816000526020600020601f850160051c81016020861015620001f45750805b601f850160051c820191505b81811015620002155782815560010162000200565b5050505b505050565b81516001600160401b038111156200023a576200023a62000081565b62000252816200024b84546200018d565b84620001c9565b602080601f8311600181146200028a5760008415620002715750858301515b600019600386901b1c1916600185901b17855562000215565b600085815260208120601f198616915b82811015620002bb578886015182559484019460019091019084016200029a565b5085821015620002da5787850151600019600388901b60f8161c191681555b5050505050600190811b01905550565b60805161099b620003146000396000818161014a0152818161028e01526103f0015261099b6000f3fe6080604052600436106100745760003560e01c80637e932d321161004e5780637e932d3214610116578063b0d691fe14610138578063b61d27f614610184578063d1684c7d146101a457600080fd5b8063054f7d9c146100805780631626ba7e146100af5780633a871cdd146100e857600080fd5b3661007b57005b600080fd5b34801561008c57600080fd5b5060015461009a9060ff1681565b60405190151581526020015b60405180910390f35b3480156100bb57600080fd5b506100cf6100ca366004610653565b6101c6565b6040516001600160e01b031990911681526020016100a6565b3480156100f457600080fd5b5061010861010336600461070e565b610281565b6040519081526020016100a6565b34801561012257600080fd5b50610136610131366004610762565b610367565b005b34801561014457600080fd5b5061016c7f000000000000000000000000000000000000000000000000000000000000000081565b6040516001600160a01b0390911681526020016100a6565b34801561019057600080fd5b5061013661019f366004610784565b6103e5565b3480156101b057600080fd5b506101b96104fc565b6040516100a69190610869565b600061025d8383600080546101da9061087c565b80601f01602080910402602001604051908101604052809291908181526020018280546102069061087c565b80156102535780601f1061022857610100808354040283529160200191610253565b820191906000526020600020905b81548152906001019060200180831161023657829003601f168201915b505050505061058a565b156102705750630b135d3f60e11b61027b565b506001600160e01b03195b92915050565b6000336001600160a01b037f000000000000000000000000000000000000000000000000000000000000000016146102e95760405162461bcd60e51b815260206004820152600660248201526506e6f742065760d41b60448201526064015b60405180910390fd5b60015460ff16156102fc57506001610360565b61034f8361030e6101408701876108b6565b8080601f016020809104026020016040519081016040528093929190818152602001838380828437600092018290525080549093506101da9250905061087c565b1561035c57506000610360565b5060015b9392505050565b33301461039e5760405162461bcd60e51b815260206004820152600560248201526419dd585c9960da1b60448201526064016102e0565b6001805460ff19168215159081179091556040519081527f59800d968fcce138300a0019410b4b75041610d65b3cdc5f31656b03ed14912e9060200160405180910390a150565b336001600160a01b037f000000000000000000000000000000000000000000000000000000000000000016146104465760405162461bcd60e51b815260206004820152600660248201526506e6f742065760d41b60448201526064016102e0565b60015460ff16156104825760405162461bcd60e51b8152602060048201526006602482015265333937bd32b760d11b60448201526064016102e0565b600080856001600160a01b03168585856040516104a0929190610904565b60006040518083038185875af1925050503d80600081146104dd576040519150601f19603f3d011682016040523d82523d6000602084013e6104e2565b606091505b5091509150816104f457805160208201fd5b505050505050565b600080546105099061087c565b80601f01602080910402602001604051908101604052809291908181526020018280546105359061087c565b80156105825780601f1061055757610100808354040283529160200191610582565b820191906000526020600020905b81548152906001019060200180831161056557829003601f168201915b505050505081565b60008060006101006001600160a01b03168686866040516020016105b093929190610914565b60408051601f19818403018152908290526105ca91610949565b600060405180830381855afa9150503d8060008114610605576040519150601f19603f3d011682016040523d82523d6000602084013e61060a565b606091505b509150915081158061061d575060208151105b1561062d57600092505050610360565b6020015160011495945050505050565b634e487b7160e01b600052604160045260246000fd5b6000806040838503121561066657600080fd5b82359150602083013567ffffffffffffffff8082111561068557600080fd5b818501915085601f83011261069957600080fd5b8135818111156106ab576106ab61063d565b604051601f8201601f19908116603f011681019083821181831017156106d3576106d361063d565b816040528281528860208487010111156106ec57600080fd5b8260208601602083013760006020848301015280955050505050509250929050565b60008060006060848603121561072357600080fd5b833567ffffffffffffffff81111561073a57600080fd5b8401610160818703121561074d57600080fd5b95602085013595506040909401359392505050565b60006020828403121561077457600080fd5b8135801515811461036057600080fd5b6000806000806060858703121561079a57600080fd5b84356001600160a01b03811681146107b157600080fd5b935060208501359250604085013567ffffffffffffffff808211156107d557600080fd5b818701915087601f8301126107e957600080fd5b8135818111156107f857600080fd5b88602082850101111561080a57600080fd5b95989497505060200194505050565b60005b8381101561083457818101518382015260200161081c565b50506000910152565b60008151808452610855816020860160208601610819565b601f01601f19169290920160200192915050565b602081526000610360602083018461083d565b600181811c9082168061089057607f821691505b6020821081036108b057634e487b7160e01b600052602260045260246000fd5b50919050565b6000808335601e198436030181126108cd57600080fd5b83018035915067ffffffffffffffff8211156108e857600080fd5b6020019150368190038213156108fd57600080fd5b9250929050565b8183823760009101908152919050565b83815260606020820152600061092d606083018561083d565b828103604084015261093f818561083d565b9695505050505050565b6000825161095b818460208701610819565b919091019291505056fea2646970667358221220084ea6efad776cc24d9860c8989f2de6949fac0174c08930f4188100976e1aa464736f6c63430008180033",
  "linkReferences": {},
  "deployedLinkReferences": {}
}