{"src/test/TestEntryPoint.sol":{"TestEntryPoint":{"abi":[{"inputs":[{"internalType":"address","name":"account","type":"address"},{"internalType":"address","name":"to","type":"address"},{"internalType":"uint256","name":"value","type":"uint256"},{"internalType":"bytes","name":"data","type":"bytes"}],"name":"callExecute","outputs":[],"stateMutability":"nonpayable","type":"function"},{"inputs":[{"internalType":"address","name":"account","type":"address"},{"internalType":"address","name":"to","type":"address"},{"internalType":"uint256","name":"value","type":"uint256"},{"internalType":"bytes","name":"data","type":"bytes"}],"name":"callExecuteAndBurn","outputs":[],"stateMutability":"nonpayable","type":"function"},{"inputs":[{"internalType":"address","name":"account","type":"address"},{"components":[{"internalType":"address","name":"sender","type":"address"},{"internalType":"uint256","name":"nonce","type":"uint256"},{"internalType":"bytes","name":"initCode","type":"bytes"},{"internalType":"bytes","name":"callData","type":"bytes"},{"internalType":"uint256","name":"callGasLimit","type":"uint256"},{"internalType":"uint256","name":"verificationGasLimit","type":"uint256"},{"internalType":"uint256","name":"preVerificationGas","type":"uint256"},{"internalType":"uint256","name":"maxFeePerGas","type":"uint256"},{"internalType":"uint256","name":"maxPriorityFeePerGas","type":"uint256"},{"internalType":"bytes","name":"paymasterAndData","type":"bytes"},{"internalType":"bytes","name":"signature","type":"bytes"}],"internalType":"struct UserOperation","name":"op","type":"tuple"},{"internalType":"bytes32","name":"h","type":"bytes32"}],"name":"callValidate","outputs":[{"internalType":"uint256","name":"","type":"uint256"}],"stateMutability":"nonpayable","type":"function"}],"evm":{"bytecode":{"linkReferences":{},"object":"608060405234801561001057600080fd5b506104d7806100206000396000f3fe608060405234801561001057600080fd5b50600436106100415760003560e01c8063043ff9d2146100465780632af664691461005b578063ab63257214610080575b600080fd5b6100596100543660046101ca565b610093565b005b61006e610069366004610265565b6100fe565b60405190815260200160405180910390f35b61005961008e3660046101ca565b61017c565b604051635b0e93fb60e11b81526001600160a01b0386169063b61d27f6906100c59087908790879087906004016102ec565b600060405180830381600087803b1580156100df57600080fd5b505af11580156100f3573d6000803e3d6000fd5b505050505050505050565b604051633a871cdd60e01b81526000906001600160a01b03851690633a871cdd906101319086908690869060040161036b565b6020604051808303816000875af1158015610150573d6000803e3d6000fd5b505050506040513d601f19601f820116820180604052508101906101749190610488565b949350505050565b60405163dc41461d60e01b81526001600160a01b0386169063dc41461d906100c59087908790879087906004016102ec565b80356001600160a01b03811681146101c557600080fd5b919050565b6000806000806000608086880312156101e257600080fd5b6101eb866101ae565b94506101f9602087016101ae565b935060408601359250606086013567ffffffffffffffff8082111561021d57600080fd5b818801915088601f83011261023157600080fd5b81358181111561024057600080fd5b89602082850101111561025257600080fd5b9699959850939650602001949392505050565b60008060006060848603121561027a57600080fd5b610283846101ae565b9250602084013567ffffffffffffffff81111561029f57600080fd5b840161016081870312156102b257600080fd5b929592945050506040919091013590565b81835281816020850137506000828201602090810191909152601f909101601f19169091010190565b60018060a01b03851681528360208201526060604082015260006103146060830184866102c3565b9695505050505050565b6000808335601e1984360301811261033557600080fd5b830160208101925035905067ffffffffffffffff81111561035557600080fd5b80360382131561036457600080fd5b9250929050565b6060815261038c6060820161037f866101ae565b6001600160a01b03169052565b6020840135608082015260006103a5604086018661031e565b6101608060a08601526103bd6101c0860183856102c3565b92506103cc606089018961031e565b9250605f19808786030160c08801526103e68585846102c3565b945060808a013560e0880152610100935060a08a013584880152610120915060c08a01358288015261014060e08b013581890152848b01358489015261042e838c018c61031e565b9550935081888703016101808901526104488686866102c3565b9550610456818c018c61031e565b955093505080878603016101a088015250506104738383836102c3565b60208601979097525050505060400152919050565b60006020828403121561049a57600080fd5b505191905056fea2646970667358221220e4f3b0c7bf168d61385967c3a43ad8972015a5997f365694566ba8851882297264736f6c63430008180033","opcodes":"PUSH1 0x80 PUSH1 0x40 MSTORE CALLVALUE DUP1 ISZERO PUSH2 0x10 JUMPI PUSH1 0x0 DUP1 REVERT JUMPDEST POP PUSH2 0x4D7 DUP1 PUSH2 0x20 PUSH1 0x0 CODECOPY PUSH1 0x0 RETURN INVALID PUSH1 0x80 PUSH1 0x40 MSTORE CALLVALUE DUP1 ISZERO PUSH2 0x10 JUMPI PUSH1 0x0 DUP1 REVERT JUMPDEST POP PUSH1 0x4 CALLDATASIZE LT PUSH2 0x41 JUMPI PUSH1 0x0 CALLDATALOAD PUSH1 0xE0 SHR DUP1 PUSH4 0x43FF9D2 EQ PUSH2 0x46 JUMPI DUP1 PUSH4 0x2AF66469 EQ PUSH2 0x5B JUMPI DUP1 PUSH4 0xAB632572 EQ PUSH2 0x80 JUMPI JUMPDEST PUSH1 0x0 DUP1 REVERT JUMPDEST PUSH2 0x59 PUSH2 0x54 CALLDATASIZE PUSH1 0x4 PUSH2 0x1CA JUMP JUMPDEST PUSH2 0x93 JUMP JUMPDEST STOP JUMPDEST PUSH2 0x6E PUSH2 0x69 CALLDATASIZE PUSH1 0x4 PUSH2 0x265 JUMP JUMPDEST PUSH2 0xFE JUMP JUMPDEST PUSH1 0x40 MLOAD SWAP1 DUP2 MSTORE PUSH1 0x20 ADD PUSH1 0x40 MLOAD DUP1 SWAP2 SUB SWAP1 RETURN JUMPDEST PUSH2 0x59 PUSH2 0x8E CALLDATASIZE PUSH1 0x4 PUSH2 0x1CA JUMP JUMPDEST PUSH2 0x17C JUMP JUMPDEST PUSH1 0x40 MLOAD PUSH4 0x5B0E93FB PUSH1 0xE1 SHL DUP2 MSTORE PUSH1 0x1 PUSH1 0x1 PUSH1 0xA0 SHL SUB DUP7 AND SWAP1 PUSH4 0xB61D27F6 SWAP1 PUSH2 0xC5 SWAP1 DUP8 SWAP1 DUP8 SWAP1 DUP8 SWAP1 DUP8 SWAP1 PUSH1 0x4 ADD PUSH2 0x2EC JUMP JUMPDEST PUSH1 0x0 PUSH1 0x40 MLOAD DUP1 DUP4 SUB DUP2 PUSH1 0x0 DUP8 DUP1 EXTCODESIZE ISZERO DUP1 ISZERO PUSH2 0xDF JUMPI PUSH1 0x0 DUP1 REVERT JUMPDEST POP GAS CALL ISZERO DUP1 ISZERO PUSH2 0xF3 JUMPI RETURNDATASIZE PUSH1 0x0 DUP1 RETURNDATACOPY RETURNDATASIZE PUSH1 0x0 REVERT JUMPDEST POP POP POP POP POP POP POP POP POP JUMP JUMPDEST PUSH1 0x40 MLOAD PUSH4 0x3A871CDD PUSH1 0xE0 SHL DUP2 MSTORE PUSH1 0x0 SWAP1 PUSH1 0x1 PUSH1 0x1 PUSH1 0xA0 SHL SUB DUP6 AND SWAP1 PUSH4 0x3A871CDD SWAP1 PUSH2 0x131 SWAP1 DUP7 SWAP1 DUP7 SWAP1 DUP7 SWAP1 PUSH1 0x4 ADD PUSH2 0x36B JUMP JUMPDEST PUSH1 0x20 PUSH1 0x40 MLOAD DUP1 DUP4 SUB DUP2 PUSH1 0x0 DUP8 GAS CALL ISZERO DUP1 ISZERO PUSH2 0x150 JUMPI RETURNDATASIZE PUSH1 0x0 DUP1 RETURNDATACOPY RETURNDATASIZE PUSH1 0x0 REVERT JUMPDEST POP POP POP POP PUSH1 0x40 MLOAD RETURNDATASIZE PUSH1 0x1F NOT PUSH1 0x1F DUP3 ADD AND DUP3 ADD DUP1 PUSH1 0x40 MSTORE POP DUP2 ADD SWAP1 PUSH2 0x174 SWAP2 SWAP1 PUSH2 0x488 JUMP JUMPDEST SWAP5 SWAP4 POP POP POP POP JUMP JUMPDEST PUSH1 0x40 MLOAD PUSH4 0xDC41461D PUSH1 0xE0 SHL DUP2 MSTORE PUSH1 0x1 PUSH1 0x1 PUSH1 0xA0 SHL SUB DUP7 AND SWAP1 PUSH4 0xDC41461D SWAP1 PUSH2 0xC5 SWAP1 DUP8 SWAP1 DUP8 SWAP1 DUP8 SWAP1 DUP8 SWAP1 PUSH1 0x4 ADD PUSH2 0x2EC JUMP JUMPDEST DUP1 CALLDATALOAD PUSH1 0x1 PUSH1 0x1 PUSH1 0xA0 SHL SUB DUP2 AND DUP2 EQ PUSH2 0x1C5 JUMPI PUSH1 0x0 DUP1 REVERT JUMPDEST SWAP2 SWAP1 POP JUMP JUMPDEST PUSH1 0x0 DUP1 PUSH1 0x0 DUP1 PUSH1 0x0 PUSH1 0x80 DUP7 DUP9 SUB SLT ISZERO PUSH2 0x1E2 JUMPI PUSH1 0x0 DUP1 REVERT JUMPDEST PUSH2 0x1EB DUP7 PUSH2 0x1AE JUMP JUMPDEST SWAP5 POP PUSH2 0x1F9 PUSH1 0x20 DUP8 ADD PUSH2 0x1AE JUMP JUMPDEST SWAP4 POP PUSH1 0x40 DUP7 ADD CALLDATALOAD SWAP3 POP PUSH1 0x60 DUP7 ADD CALLDATALOAD PUSH8 0xFFFFFFFFFFFFFFFF DUP1 DUP3 GT ISZERO PUSH2 0x21D JUMPI PUSH1 0x0 DUP1 REVERT JUMPDEST DUP2 DUP9 ADD SWAP2 POP DUP9 PUSH1 0x1F DUP4 ADD SLT PUSH2 0x231 JUMPI PUSH1 0x0 DUP1 REVERT JUMPDEST DUP2 CALLDATALOAD DUP2 DUP2 GT ISZERO PUSH2 0x240 JUMPI PUSH1 0x0 DUP1 REVERT JUMPDEST DUP10 PUSH1 0x20 DUP3 DUP6 ADD ADD GT ISZERO PUSH2 0x252 JUMPI PUSH1 0x0 DUP1 REVERT JUMPDEST SWAP7 SWAP10 SWAP6 SWAP9 POP SWAP4 SWAP7 POP PUSH1 0x20 ADD SWAP5 SWAP4 SWAP3 POP POP POP JUMP JUMPDEST PUSH1 0x0 DUP1 PUSH1 0x0 PUSH1 0x60 DUP5 DUP7 SUB SLT ISZERO PUSH2 0x27A JUMPI PUSH1 0x0 DUP1 REVERT JUMPDEST PUSH2 0x283 DUP5 PUSH2 0x1AE JUMP JUMPDEST SWAP3 POP PUSH1 0x20 DUP5 ADD CALLDATALOAD PUSH8 0xFFFFFFFFFFFFFFFF DUP2 GT ISZERO PUSH2 0x29F JUMPI PUSH1 0x0 DUP1 REVERT JUMPDEST DUP5 ADD PUSH2 0x160 DUP2 DUP8 SUB SLT ISZERO PUSH2 0x2B2 JUMPI PUSH1 0x0 DUP1 REVERT JUMPDEST SWAP3 SWAP6 SWAP3 SWAP5 POP POP POP PUSH1 0x40 SWAP2 SWAP1 SWAP2 ADD CALLDATALOAD SWAP1 JUMP JUMPDEST DUP2 DUP4 MSTORE DUP2 DUP2 PUSH1 0x20 DUP6 ADD CALLDATACOPY POP PUSH1 0x0 DUP3 DUP3 ADD PUSH1 0x20 SWAP1 DUP2 ADD SWAP2 SWAP1 SWAP2 MSTORE PUSH1 0x1F SWAP1 SWAP2 ADD PUSH1 0x1F NOT AND SWAP1 SWAP2 ADD ADD SWAP1 JUMP JUMPDEST PUSH1 0x1 DUP1 PUSH1 0xA0 SHL SUB DUP6 AND DUP2 MSTORE DUP4 PUSH1 0x20 DUP3 ADD MSTORE PUSH1 0x60 PUSH1 0x40 DUP3 ADD MSTORE PUSH1 0x0 PUSH2 0x314 PUSH1 0x60 DUP4 ADD DUP5 DUP7 PUSH2 0x2C3 JUMP JUMPDEST SWAP7 SWAP6 POP POP POP POP POP POP JUMP JUMPDEST PUSH1 0x0 DUP1 DUP4 CALLDATALOAD PUSH1 0x1E NOT DUP5 CALLDATASIZE SUB ADD DUP2 SLT PUSH2 0x335 JUMPI PUSH1 0x0 DUP1 REVERT JUMPDEST DUP4 ADD PUSH1 0x20 DUP2 ADD SWAP3 POP CALLDATALOAD SWAP1 POP PUSH8 0xFFFFFFFFFFFFFFFF DUP2 GT ISZERO PUSH2 0x355 JUMPI PUSH1 0x0 DUP1 REVERT JUMPDEST DUP1 CALLDATASIZE SUB DUP3 SGT ISZERO PUSH2 0x364 JUMPI PUSH1 0x0 DUP1 REVERT JUMPDEST SWAP3 POP SWAP3 SWAP1 POP JUMP JUMPDEST PUSH1 0x60 DUP2 MSTORE PUSH2 0x38C PUSH1 0x60 DUP3 ADD PUSH2 0x37F DUP7 PUSH2 0x1AE JUMP JUMPDEST PUSH1 0x1 PUSH1 0x1 PUSH1 0xA0 SHL SUB AND SWAP1 MSTORE JUMP JUMPDEST PUSH1 0x20 DUP5 ADD CALLDATALOAD PUSH1 0x80 DUP3 ADD MSTORE PUSH1 0x0 PUSH2 0x3A5 PUSH1 0x40 DUP7 ADD DUP7 PUSH2 0x31E JUMP JUMPDEST PUSH2 0x160 DUP1 PUSH1 0xA0 DUP7 ADD MSTORE PUSH2 0x3BD PUSH2 0x1C0 DUP7 ADD DUP4 DUP6 PUSH2 0x2C3 JUMP JUMPDEST SWAP3 POP PUSH2 0x3CC PUSH1 0x60 DUP10 ADD DUP10 PUSH2 0x31E JUMP JUMPDEST SWAP3 POP PUSH1 0x5F NOT DUP1 DUP8 DUP7 SUB ADD PUSH1 0xC0 DUP9 ADD MSTORE PUSH2 0x3E6 DUP6 DUP6 DUP5 PUSH2 0x2C3 JUMP JUMPDEST SWAP5 POP PUSH1 0x80 DUP11 ADD CALLDATALOAD PUSH1 0xE0 DUP9 ADD MSTORE PUSH2 0x100 SWAP4 POP PUSH1 0xA0 DUP11 ADD CALLDATALOAD DUP5 DUP9 ADD MSTORE PUSH2 0x120 SWAP2 POP PUSH1 0xC0 DUP11 ADD CALLDATALOAD DUP3 DUP9 ADD MSTORE PUSH2 0x140 PUSH1 0xE0 DUP12 ADD CALLDATALOAD DUP2 DUP10 ADD MSTORE DUP5 DUP12 ADD CALLDATALOAD DUP5 DUP10 ADD MSTORE PUSH2 0x42E DUP4 DUP13 ADD DUP13 PUSH2 0x31E JUMP JUMPDEST SWAP6 POP SWAP4 POP DUP2 DUP9 DUP8 SUB ADD PUSH2 0x180 DUP10 ADD MSTORE PUSH2 0x448 DUP7 DUP7 DUP7 PUSH2 0x2C3 JUMP JUMPDEST SWAP6 POP PUSH2 0x456 DUP2 DUP13 ADD DUP13 PUSH2 0x31E JUMP JUMPDEST SWAP6 POP SWAP4 POP POP DUP1 DUP8 DUP7 SUB ADD PUSH2 0x1A0 DUP9 ADD MSTORE POP POP PUSH2 0x473 DUP4 DUP4 DUP4 PUSH2 0x2C3 JUMP JUMPDEST PUSH1 0x20 DUP7 ADD SWAP8 SWAP1 SWAP8 MSTORE POP POP POP POP PUSH1 0x40 ADD MSTORE SWAP2 SWAP1 POP JUMP JUMPDEST PUSH1 0x0 PUSH1 0x20 DUP3 DUP5 SUB SLT ISZERO PUSH2 0x49A JUMPI PUSH1 0x0 DUP1 REVERT JUMPDEST POP MLOAD SWAP2 SWAP1 POP JUMP INVALID LOG2 PUSH5 0x6970667358 0x22 SLT KECCAK256 0xE4 RETURN 0xB0 0xC7 0xBF AND DUP14 PUSH2 0x3859 PUSH8 0xC3A43AD8972015A5 SWAP10 PUSH32 0x365694566BA8851882297264736F6C6343000818003300000000000000000000 "},"methodIdentifiers":{"callExecute(address,address,uint256,bytes)":"043ff9d2","callExecuteAndBurn(address,address,uint256,bytes)":"ab632572","callValidate(address,(address,uint256,bytes,bytes,uint256,uint256,uint256,uint256,uint256,bytes,bytes),bytes32)":"2af66469"}}}}}