{"src/test/TestTarget.sol":{"TestTarget":{"abi":[{"anonymous":false,"inputs":[{"indexed":false,"internalType":"address","name":"from","type":"address"}],"name":"Ping","type":"event"},{"inputs":[],"name":"ping","outputs":[],"stateMutability":"nonpayable","type":"function"}],"evm":{"bytecode":{"linkReferences":{},"object":"6080604052348015600f57600080fd5b5060a08061001e6000396000f3fe6080604052348015600f57600080fd5b506004361060285760003560e01c80635c36b18614602d575b600080fd5b60336035565b005b6040513381527ffee8775ba9b0f00b87db291c081d99de518bdebb6ccfa2482cc5882fe69307e59060200160405180910390a156fea2646970667358221220ab2c8bd150dc1fbcb412160ff1c49b36aa51c3bee7b8dacc8024d76a60a9ac1f64736f6c63430008180033","opcodes":"PUSH1 0x80 PUSH1 0x40 MSTORE CALLVALUE DUP1 ISZERO PUSH1 0xF JUMPI PUSH1 0x0 DUP1 REVERT JUMPDEST POP PUSH1 0xA0 DUP1 PUSH2 0x1E PUSH1 0x0 CODECOPY PUSH1 0x0 RETURN INVALID PUSH1 0x80 PUSH1 0x40 MSTORE CALLVALUE DUP1 ISZERO PUSH1 0xF JUMPI PUSH1 0x0 DUP1 REVERT JUMPDEST POP PUSH1 0x4 CALLDATASIZE LT PUSH1 0x28 JUMPI PUSH1 0x0 CALLDATALOAD PUSH1 0xE0 SHR DUP1 PUSH4 0x5C36B186 EQ PUSH1 0x2D JUMPI JUMPDEST PUSH1 0x0 DUP1 REVERT JUMPDEST PUSH1 0x33 PUSH1 0x35 JUMP JUMPDEST STOP JUMPDEST PUSH1 0x40 MLOAD CALLER DUP2 MSTORE PUSH32 0xFEE8775BA9B0F00B87DB291C081D99DE518BDEBB6CCFA2482CC5882FE69307E5 SWAP1 PUSH1 0x20 ADD PUSH1 0x40 MLOAD DUP1 SWAP2 SUB SWAP1 LOG1 JUMP INVALID LOG2 PUSH5 0x6970667358 0x22 SLT KECCAK256 0xAB 0x2C DUP12 0xD1 POP 0xDC 0x1F 0xBC 0xB4 SLT AND 0xF CALL 0xC4 SWAP12 CALLDATASIZE 0xAA MLOAD 0xC3 0xBE 0xE7 0xB8 0xDA 0xCC DUP1 0x24 0xD7 PUSH11 0x60A9AC1F64736F6C634300 ADDMOD XOR STOP CALLER "},"methodIdentifiers":{"ping()":"5c36b186"}}}}}