{
  "_format": "hh-sol-artifact-1",
  "contractName": "TestTarget",
  "sourceName": "src/test/TestTarget.sol",
  "abi": [
    {
      "anonymous": false,
      "inputs": [
        {
          "indexed": false,
          "internalType": "address",
          "name": "from",
          "type": "address"
        }
      ],
      "name": "Ping",
      "type": "event"
    },
    {
      "inputs": [],
      "name": "ping",
      "outputs": [],
      "stateMutability": "nonpayable",
      "type": "function"
    }
  ],
  "bytecode": "0x6080604052348015600f57600080fd5b5060a08061001e6000396000f3fe6080604052348015600f57600080fd5b506004361060285760003560e01c80635c36b18614602d575b600080fd5b60336035565b005b6040513381527ffee8775ba9b0f00b87db291c081d99de518bdebb6ccfa2482cc5882fe69307e59060200160405180910390a156fea2646970667358221220ab2c8bd150dc1fbcb412160ff1c49b36aa51c3bee7b8dacc8024d76a60a9ac1f64736f6c63430008180033",
  "linkReferences": {},
  "deployedLinkReferences": {}
}