{
  "_format": "hh-sol-artifact-1",
  "contractName": "TestEntryPoint",
  "sourceName": "src/test/TestEntryPoint.sol",
  "abi": [
    {
      "inputs": [
        {
          "internalType": "address",
          "name": "account",
          "type": "address"
        },
        {
          "internalType": "address",
          "name": "to",
          "type": "address"
        },
        {
          "internalType": "uint256",
          "name": "value",
          "type": "uint256"
        },
        {
          "internalType": "bytes",
          "name": "data",
          "type": "bytes"
        }
      ],
      "name": "callExecute",
      "outputs": [],
      "stateMutability": "nonpayable",
      "type": "function"
    },
    {
      "inputs": [
        {
          "internalType": "address",
          "name": "account",
          "type": "address"
        },
        {
          "internalType": "address",
          "name": "to",
          "type": "address"
        },
        {
          "internalType": "uint256",
          "name": "value",
          "type": "uint256"
        },
        {
          "internalType": "bytes",
          "name": "data",
          "type": "bytes"
        }
      ],
      "name": "callExecuteAndBurn",
      "outputs": [],
      "stateMutability": "nonpayable",
      "type": "function"
    },
    {
      "inputs": [
        {
          "internalType": "address",
          "name": "account",
          "type": "address"
        },
        {
          "components": [
            {
              "internalType": "address",
              "name": "sender",
              "type": "address"
            },
            {
              "internalType": "uint256",
              "name": "nonce",
              "type": "uint256"
            },
            {
              "internalType": "bytes",
              "name": "initCode",
              "type": "bytes"
            },
            {
              "internalType": "bytes",
              "name": "callData",
              "type": "bytes"
            },
            {
              "internalType": "uint256",
              "name": "callGasLimit",
              "type": "uint256"
            },
            {
              "internalType": "uint256",
              "name": "verificationGasLimit",
              "type": "uint256"
            },
            {
              "internalType": "uint256",
              "name": "preVerificationGas",
              "type": "uint256"
            },
            {
              "internalType": "uint256",
              "name": "maxFeePerGas",
              "type": "uint256"
            },
            {
              "internalType": "uint256",
              "name": "maxPriorityFeePerGas",
              "type": "uint256"
            },
            {
              "internalType": "bytes",
              "name": "paymasterAndData",
              "type": "bytes"
            },
            {
              "internalType": "bytes",
              "name": "signature",
              "type": "bytes"
            }
          ],
          "internalType": "struct UserOperation",
          "name": "op",
          "type": "tuple"
        },
        {
          "internalType": "bytes32",
          "name": "h",
          "type": "bytes32"
        }
      ],
      "name": "callValidate",
      "outputs": [
        {
          "internalType": "uint256",
          "name": "",
          "type": "uint256"
        }
      ],
      "stateMutability": "nonpayable",
      "type": "function"
    }
  ],
  "bytecode": "0x608060405234801561001057600080fd5b506104d7806100206000396000f3fe608060405234801561001057600080fd5b50600436106100415760003560e01c8063043ff9d2146100465780632af664691461005b578063ab63257214610080575b600080fd5b6100596100543660046101ca565b610093565b005b61006e610069366004610265565b6100fe565b60405190815260200160405180910390f35b61005961008e3660046101ca565b61017c565b604051635b0e93fb60e11b81526001600160a01b0386169063b61d27f6906100c59087908790879087906004016102ec565b600060405180830381600087803b1580156100df57600080fd5b505af11580156100f3573d6000803e3d6000fd5b505050505050505050565b604051633a871cdd60e01b81526000906001600160a01b03851690633a871cdd906101319086908690869060040161036b565b6020604051808303816000875af1158015610150573d6000803e3d6000fd5b505050506040513d601f19601f820116820180604052508101906101749190610488565b949350505050565b60405163dc41461d60e01b81526001600160a01b0386169063dc41461d906100c59087908790879087906004016102ec565b80356001600160a01b03811681146101c557600080fd5b919050565b6000806000806000608086880312156101e257600080fd5b6101eb866101ae565b94506101f9602087016101ae565b935060408601359250606086013567ffffffffffffffff8082111561021d57600080fd5b818801915088601f83011261023157600080fd5b81358181111561024057600080fd5b89602082850101111561025257600080fd5b9699959850939650602001949392505050565b60008060006060848603121561027a57600080fd5b610283846101ae565b9250602084013567ffffffffffffffff81111561029f57600080fd5b840161016081870312156102b257600080fd5b929592945050506040919091013590565b81835281816020850137506000828201602090810191909152601f909101601f19169091010190565b60018060a01b03851681528360208201526060604082015260006103146060830184866102c3565b9695505050505050565b6000808335601e1984360301811261033557600080fd5b830160208101925035905067ffffffffffffffff81111561035557600080fd5b80360382131561036457600080fd5b9250929050565b6060815261038c6060820161037f866101ae565b6001600160a01b03169052565b6020840135608082015260006103a5604086018661031e565b6101608060a08601526103bd6101c0860183856102c3565b92506103cc606089018961031e565b9250605f19808786030160c08801526103e68585846102c3565b945060808a013560e0880152610100935060a08a013584880152610120915060c08a01358288015261014060e08b013581890152848b01358489015261042e838c018c61031e565b9550935081888703016101808901526104488686866102c3565b9550610456818c018c61031e565b955093505080878603016101a088015250506104738383836102c3565b60208601979097525050505060400152919050565b60006020828403121561049a57600080fd5b505191905056fea2646970667358221220e4f3b0c7bf168d61385967c3a43ad8972015a5997f365694566ba8851882297264736f6c63430008180033",
  "linkReferences": {},
  "deployedLinkReferences": {}
}